{
  "_format": "hh-sol-artifact-1",
  "contractName": "AtomicProxyFactory",
  "sourceName": "contracts/AtomicProxyFactory.sol",
  "abi": [
    {
      "inputs": [],
      "stateMutability": "nonpayable",
      "type": "constructor"
    },
    {
      "anonymous": false,
      "inputs": [
        {
          "indexed": false,
          "internalType": "address",
          "name": "proxy",
          "type": "address"
        },
        {
          "indexed": false,
          "internalType": "address",
          "name": "initialOwner",
          "type": "address"
        }
      ],
      "name": "ProxyDeployed",
      "type": "event"
    },
    {
      "inputs": [
        {
          "internalType": "address",
          "name": "creator",
          "type": "address"
        },
        {
          "internalType": "string",
          "name": "name",
          "type": "string"
        }
      ],
      "name": "computeProxyAddress",
      "outputs": [
        {
          "internalType": "address",
          "name": "",
          "type": "address"
        }
      ],
      "stateMutability": "view",
      "type": "function"
    },
    {
      "inputs": [
        {
          "internalType": "string",
          "name": "name",
          "type": "string"
        }
      ],
      "name": "deployProxy",
      "outputs": [
        {
          "internalType": "address",
          "name": "",
          "type": "address"
        }
      ],
      "stateMutability": "nonpayable",
      "type": "function"
    },
    {
      "inputs": [
        {
          "internalType": "address",
          "name": "creator",
          "type": "address"
        },
        {
          "internalType": "string",
          "name": "name",
          "type": "string"
        }
      ],
      "name": "getProxyAddress",
      "outputs": [
        {
          "internalType": "address",
          "name": "",
          "type": "address"
        }
      ],
      "stateMutability": "view",
      "type": "function"
    }
  ],
  "bytecode": "0x608060405234601c57600e6020565b6117cf61002c82396117cf90f35b6026565b60405190565b600080fdfe60806040526004361015610013575b6102d3565b61001e60003561004d565b80630941eb5514610048578063278468ac146100435763292396220361000e5761029d565b610267565b6101c8565b60e01c90565b60405190565b600080fd5b600080fd5b600080fd5b600080fd5b600080fd5b601f801991011690565b634e487b7160e01b600052604160045260246000fd5b9061009c90610072565b810190811067ffffffffffffffff8211176100b657604052565b61007c565b906100ce6100c7610053565b9283610092565b565b67ffffffffffffffff81116100ee576100ea602091610072565b0190565b61007c565b90826000939282370152565b9092919261011461010f826100d0565b6100bb565b938185526020850190828401116101305761012e926100f3565b565b61006d565b9080601f8301121561015357816020610150933591016100ff565b90565b610068565b9060208282031261018957600082013567ffffffffffffffff8111610184576101819201610135565b90565b610063565b61005e565b60018060a01b031690565b6101a29061018e565b90565b6101ae90610199565b9052565b91906101c6906000602085019401906101a5565b565b346101f8576101f46101e36101de366004610158565b610686565b6101eb610053565b918291826101b2565b0390f35b610059565b61020681610199565b0361020d57565b600080fd5b9050359061021f826101fd565b565b9190916040818403126102625761023b8360008301610212565b92602082013567ffffffffffffffff811161025d5761025a9201610135565b90565b610063565b61005e565b346102985761029461028361027d366004610221565b9061085f565b61028b610053565b918291826101b2565b0390f35b610059565b346102ce576102ca6102b96102b3366004610221565b906108e1565b6102c1610053565b918291826101b2565b0390f35b610059565b600080fd5b600090565b90565b60200190565b5190565b6bffffffffffffffffffffffff191690565b610305906102ea565b90565b60601c90565b90565b61032561032061032a9261018e565b61030e565b61018e565b90565b61033961033e91610308565b610311565b90565b61034a9061032d565b90565b90565b60ff1690565b61036a61036561036f9261034d565b61030e565b610350565b90565b90565b90565b61038461038991610372565b610375565b9052565b61039981602093610378565b0190565b6affffffffffffffffffffff60a81b1690565b6103b99061039d565b90565b60601b90565b6103cb906103bc565b90565b6103d7906103c2565b90565b6103e66103eb91610199565b6103ce565b9052565b60f81b90565b6103fe906103ef565b90565b61040d61041291610350565b6103f5565b9052565b90565b61042561042a9161039d565b610416565b9052565b600b939261044f601483610447600195610457976103da565b018092610401565b018092610419565b0190565b6104659051610372565b90565b1b90565b61048661048161047b836102e6565b926102e0565b61045b565b9060208110610494575b5090565b6104a79060001990602003600802610468565b1638610490565b6104b790610311565b90565b6104c3906104ae565b90565b6104e373ba5ed099633d3b313e4d5f7bdc1305d3c28ba5ed6104ba565b90565b6104ef90610311565b90565b6104fb906104e6565b90565b60e01b90565b90505190610511826101fd565b565b9060208282031261052d5761052a91600001610504565b90565b61005e565b61053b90610372565b9052565b60209181520190565b60005b83811061055c575050906000910152565b80602091830151818501520161054b565b61058c61059560209361059a93610583816102e6565b9384809361053f565b95869101610548565b610072565b0190565b916105c2926105b560408201936000830190610532565b602081840391015261056d565b90565b6105cd610053565b3d6000823e3d90fd5b9160206105f89294936105f1604082019660008301906101a5565b01906101a5565b565b61060390610372565b90565b90610610906105fa565b600052602052604060002090565b610627906104e6565b90565b906106349061061e565b600052602052604060002090565b60001b90565b9061065960018060a01b0391610642565b9181191691161790565b90565b9061067b6106766106829261061e565b610663565b8254610648565b9055565b610698906106926102d8565b506102dd565b6106aa6106a4826102e6565b916102e0565b2061073d6106bf6106ba836102fc565b610341565b6107386106cc6000610356565b916107296107156106ee6106fd886106e2610053565b9283916020830161038d565b60208201810382520382610092565b61070f610709826102e6565b916102e0565b206103b0565b61071d610053565b9485936020850161042e565b60208201810382520382610092565b61046c565b3391602061075161074c6104c6565b6104f2565b6326307668939061077e6000610766886109ff565b96610789610772610053565b988996879586946104fe565b84526004840161059e565b03925af1918215610828576107f7926107f2916000916107fa575b509384817f3d2489efb661e8b1c3679865db649ca1de61d76a71184a1234de2e55786a6aad916107de6107d5610053565b928392836105d6565b0390a16107ed85936000610606565b61062a565b610666565b90565b61081b915060203d8111610821575b6108138183610092565b810190610513565b386107a4565b503d610809565b6105c5565b60001c90565b60018060a01b031690565b61084a61084f9161082d565b610833565b90565b61085c905461083e565b90565b61089a9061089561087b61089f946108756102d8565b506102dd565b61088d610887826102e6565b916102e0565b206000610606565b61062a565b610852565b90565b6108ab906104e6565b90565b6040906108d86108df94969593966108ce60608401986000850190610532565b6020830190610532565b01906101a5565b565b906108f66020916108f06102d8565b506102dd565b610908610902826102e6565b916102e0565b209161091a6109156104c6565b6104f2565b61096061092c63d323826a95936109ff565b61093e610938826102e6565b916102e0565b209461096b61094c306108a2565b610954610053565b978896879586956104fe565b8552600485016108ae565b03915afa9081156109b057600091610982575b5090565b6109a3915060203d81116109a9575b61099b8183610092565b810190610513565b3861097e565b503d610991565b6105c5565b606090565b905090565b6109e46109db926020926109d2816102e6565b948580936109ba565b93849101610548565b0190565b6109f6906109fc93926109bf565b906109bf565b90565b610a77610a4291610a0e6109b5565b50610a51610d1f91610a22602084016100bb565b92808452610a7b6020850139610a36610053565b948591602083016101b2565b60208201810382520384610092565b610a68610a5c610053565b938492602084016109e8565b60208201810382520382610092565b9056fe60806040523461002f576100196100146100fa565b61011b565b610021610034565b610a366102e98239610a3690f35b61003a565b60405190565b600080fd5b601f801991011690565b634e487b7160e01b600052604160045260246000fd5b906100699061003f565b810190811060018060401b0382111761008157604052565b610049565b90610099610092610034565b928361005f565b565b600080fd5b60018060a01b031690565b6100b4906100a0565b90565b6100c0816100ab565b036100c757565b600080fd5b905051906100d9826100b7565b565b906020828203126100f5576100f2916000016100cc565b90565b61009b565b610118610d1f8038038061010d81610086565b9283398101906100db565b90565b61012490610126565b565b61012f90610182565b565b90565b90565b61014b61014661015092610131565b610134565b6100a0565b90565b61015c90610137565b90565b610168906100ab565b9052565b91906101809060006020850194019061015f565b565b8061019e6101986101936000610153565b6100ab565b916100ab565b146101ae576101ac90610287565b565b6101d36101bb6000610153565b6000918291631e4fbdf760e01b83526004830161016c565b0390fd5b60001c90565b60018060a01b031690565b6101f46101f9916101d7565b6101dd565b90565b61020690546101e8565b90565b60001b90565b9061022060018060a01b0391610209565b9181191691161790565b61023e610239610243926100a0565b610134565b6100a0565b90565b61024f9061022a565b90565b61025b90610246565b90565b90565b9061027661027161027d92610252565b61025e565b825461020f565b9055565b60000190565b61029160006101fc565b61029c826000610261565b906102d06102ca7f8be0079c531659141344cd1fd0a4f28419497f9722a3daafe3b4186f6b6457e093610252565b91610252565b916102d9610034565b806102e381610281565b0390a356fe60806040526004361015610018575b610016610312565b005b610023600035610062565b8063715018a61461005d5780637c8c20ca146100585780638da5cb5b146100535763f2fde38b0361000e576101ad565b610130565b6100fb565b61008e565b60e01c90565b60405190565b600080fd5b600080fd5b600091031261008357565b610073565b60000190565b346100bc5761009e366004610078565b6100a6610234565b6100ae610068565b806100b881610088565b0390f35b61006e565b60018060a01b031690565b6100d5906100c1565b90565b6100e1906100cc565b9052565b91906100f9906000602085019401906100d8565b565b3461012b5761010b366004610078565b610127610116610243565b61011e610068565b918291826100e5565b0390f35b61006e565b3461016057610140366004610078565b61015c61014b610289565b610153610068565b918291826100e5565b0390f35b61006e565b600080fd5b610173816100cc565b0361017a57565b600080fd5b9050359061018c8261016a565b565b906020828203126101a8576101a59160000161017f565b90565b610073565b346101db576101c56101c036600461018e565b610307565b6101cd610068565b806101d781610088565b0390f35b61006e565b6101e861031c565b6101f0610220565b565b90565b90565b61020c610207610211926101f2565b6101f5565b6100c1565b90565b61021d906101f8565b90565b61023261022d6000610214565b6103e3565b565b61023c6101e0565b565b600090565b61024b61023e565b50610254610444565b90565b60001c90565b60018060a01b031690565b61027461027991610257565b61025d565b90565b6102869054610268565b90565b61029161023e565b5061029c600061027c565b90565b6102b0906102ab61031c565b6102b2565b565b806102ce6102c86102c36000610214565b6100cc565b916100cc565b146102de576102dc906103e3565b565b6103036102eb6000610214565b6000918291631e4fbdf760e01b8352600483016100e5565b0390fd5b6103109061029f565b565b61031a61062a565b565b610324610289565b61033d6103376103326106c3565b6100cc565b916100cc565b0361034457565b61036761034f6106c3565b600091829163118cdaa760e01b8352600483016100e5565b0390fd5b60001b90565b9061038260018060a01b039161036b565b9181191691161790565b6103a061039b6103a5926100c1565b6101f5565b6100c1565b90565b6103b19061038c565b90565b6103bd906103a8565b90565b90565b906103d86103d36103df926103b4565b6103c0565b8254610371565b9055565b6103ed600061027c565b6103f88260006103c3565b9061042c6104267f8be0079c531659141344cd1fd0a4f28419497f9722a3daafe3b4186f6b6457e0936103b4565b916103b4565b91610435610068565b8061043f81610088565b0390a3565b61044c61023e565b5061045561071e565b90565b63ffffffff60e01b1690565b90565b90565b61047e61047961048392610464565b6101f5565b610467565b90565b600080fd5b600080fd5b909392938483116104b05784116104ab576001820201920390565b61048b565b610486565b91565b6104c1906100c1565b90565b6104cd816104b8565b036104d457565b600080fd5b905035906104e6826104c4565b565b600080fd5b600080fd5b601f801991011690565b634e487b7160e01b600052604160045260246000fd5b9061051c906104f2565b810190811067ffffffffffffffff82111761053657604052565b6104fc565b9061054e610547610068565b9283610512565b565b67ffffffffffffffff811161056e5761056a6020916104f2565b0190565b6104fc565b90826000939282370152565b9092919261059461058f82610550565b61053b565b938185526020850190828401116105b0576105ae92610573565b565b6104ed565b9080601f830112156105d3578160206105d09335910161057f565b90565b6104e8565b919091604081840312610619576105f283600083016104d9565b92602082013567ffffffffffffffff81116106145761061192016105b5565b90565b610165565b610073565b610627906103a8565b90565b3361064461063e610639610289565b6100cc565b916100cc565b1480610697575b6000146106925761069061068b61068461067c61067660003661066e600461046a565b908092610490565b906104b5565b8101906105d8565b919061061e565b610772565b565b610745565b5063ffffffff60e01b600035166106bd6106b763278f794360e11b610458565b91610458565b1461064b565b6106cb61023e565b503390565b90565b90565b6106ea6106e56106ef926106d0565b61036b565b6106d3565b90565b61071b7f360894a13ba1a3210667c828492db98dca3e2076cc3735a920a3ca505d382bbc6106d6565b90565b61072661023e565b50610742600061073c6107376106f2565b6107fd565b0161027c565b90565b61074d610444565b610800565b5190565b61076a61076561076f926101f2565b6101f5565b610467565b90565b9061077c82610823565b816107a77fbc7cd75a20ee27fd9adebab32041f755214dbc6bffa90cc0225b39da2e5c2d3b916103b4565b906107b0610068565b806107ba81610088565b0390a26107c681610752565b6107d96107d36000610756565b91610467565b116000146107ee576107ea916108fa565b505b565b50506107f861087b565b6107ec565b90565b60008091368280378136915af43d6000803e60001461081e573d6000f35b3d6000fd5b803b6108386108326000610756565b91610467565b1461085b5761085990600061085361084e6106f2565b6107fd565b016103c3565b565b610877906000918291634c9c8ce360e01b8352600483016100e5565b0390fd5b3461088f6108896000610756565b91610467565b1161089657565b600063b398979f60e01b8152806108af60048201610088565b0390fd5b606090565b906108ca6108c583610550565b61053b565b918252565b3d6000146108ec576108e03d6108b8565b903d6000602084013e5b565b6108f46108b3565b906108ea565b600080610927936109096108b3565b508390602081019051915af49061091e6108cf565b9091909161092f565b90565b151590565b906109439061093c6108b3565b501561092a565b60001461095057506109b7565b61095982610752565b61096c6109666000610756565b91610467565b148061099b575b61097b575090565b610997906000918291639996b31560e01b8352600483016100e5565b0390fd5b50803b6109b16109ab6000610756565b91610467565b14610973565b6109c081610752565b6109d36109cd6000610756565b91610467565b116000146109e357805190602001fd5b600063d6bda27560e01b8152806109fc60048201610088565b0390fdfea2646970667358221220bba7e55d7e2bc701fd11439c603a87144d0dae64061425f3be13c6ab70b88fca64736f6c634300081c0033a2646970667358221220dcd05678f5df6b53578d1ed2b72f8358df5ea62f486f4b3a0cad7b9f07feaad564736f6c634300081c0033",
  "linkReferences": {},
  "deployedLinkReferences": {}
}