{
  "_format": "hh-sol-artifact-1",
  "contractName": "BridgeOnSapphire",
  "sourceName": "contracts/BridgeOnSapphire.sol",
  "abi": [
    {
      "inputs": [],
      "stateMutability": "nonpayable",
      "type": "constructor"
    },
    {
      "inputs": [
        {
          "internalType": "uint32",
          "name": "expected",
          "type": "uint32"
        },
        {
          "internalType": "uint32",
          "name": "actual",
          "type": "uint32"
        }
      ],
      "name": "DestinationChainInvalid",
      "type": "error"
    },
    {
      "inputs": [
        {
          "internalType": "bytes32",
          "name": "messageId",
          "type": "bytes32"
        }
      ],
      "name": "DuplicateMessageError",
      "type": "error"
    },
    {
      "inputs": [],
      "name": "FailedCall",
      "type": "error"
    },
    {
      "inputs": [
        {
          "internalType": "uint256",
          "name": "balance",
          "type": "uint256"
        },
        {
          "internalType": "uint256",
          "name": "needed",
          "type": "uint256"
        }
      ],
      "name": "InsufficientBalance",
      "type": "error"
    },
    {
      "inputs": [],
      "name": "InvalidInitialization",
      "type": "error"
    },
    {
      "inputs": [
        {
          "internalType": "uint256",
          "name": "minimum",
          "type": "uint256"
        },
        {
          "internalType": "uint256",
          "name": "amount",
          "type": "uint256"
        }
      ],
      "name": "MinimumTransferError",
      "type": "error"
    },
    {
      "inputs": [],
      "name": "NotInitializing",
      "type": "error"
    },
    {
      "inputs": [
        {
          "internalType": "address",
          "name": "owner",
          "type": "address"
        }
      ],
      "name": "OwnableInvalidOwner",
      "type": "error"
    },
    {
      "inputs": [
        {
          "internalType": "address",
          "name": "account",
          "type": "address"
        }
      ],
      "name": "OwnableUnauthorizedAccount",
      "type": "error"
    },
    {
      "inputs": [
        {
          "internalType": "address",
          "name": "expected",
          "type": "address"
        },
        {
          "internalType": "address",
          "name": "actual",
          "type": "address"
        }
      ],
      "name": "RemoteEmitterInvalid",
      "type": "error"
    },
    {
      "anonymous": false,
      "inputs": [
        {
          "indexed": false,
          "internalType": "uint64",
          "name": "version",
          "type": "uint64"
        }
      ],
      "name": "Initialized",
      "type": "event"
    },
    {
      "anonymous": false,
      "inputs": [
        {
          "indexed": true,
          "internalType": "address",
          "name": "previousOwner",
          "type": "address"
        },
        {
          "indexed": true,
          "internalType": "address",
          "name": "newOwner",
          "type": "address"
        }
      ],
      "name": "OwnershipTransferred",
      "type": "event"
    },
    {
      "inputs": [
        {
          "internalType": "address",
          "name": "in_owner",
          "type": "address"
        },
        {
          "components": [
            {
              "internalType": "uint8",
              "name": "validAfterNBlocks",
              "type": "uint8"
            },
            {
              "internalType": "uint16",
              "name": "validAfterNSeconds",
              "type": "uint16"
            },
            {
              "internalType": "uint96",
              "name": "fee",
              "type": "uint96"
            },
            {
              "internalType": "uint96",
              "name": "minimumTransfer",
              "type": "uint96"
            },
            {
              "internalType": "contract IEmitter",
              "name": "emitter",
              "type": "address"
            },
            {
              "internalType": "address",
              "name": "feeCollector",
              "type": "address"
            },
            {
              "internalType": "contract ValidatorSet",
              "name": "validator",
              "type": "address"
            }
          ],
          "internalType": "struct Settings",
          "name": "in_settings",
          "type": "tuple"
        }
      ],
      "name": "initialize",
      "outputs": [],
      "stateMutability": "nonpayable",
      "type": "function"
    },
    {
      "inputs": [],
      "name": "owner",
      "outputs": [
        {
          "internalType": "address",
          "name": "",
          "type": "address"
        }
      ],
      "stateMutability": "view",
      "type": "function"
    },
    {
      "inputs": [
        {
          "internalType": "uint32",
          "name": "remoteChainId",
          "type": "uint32"
        },
        {
          "internalType": "address",
          "name": "remoteEmitterAddress",
          "type": "address"
        }
      ],
      "name": "owner_setRemoteEmitter",
      "outputs": [],
      "stateMutability": "nonpayable",
      "type": "function"
    },
    {
      "inputs": [
        {
          "components": [
            {
              "internalType": "uint8",
              "name": "validAfterNBlocks",
              "type": "uint8"
            },
            {
              "internalType": "uint16",
              "name": "validAfterNSeconds",
              "type": "uint16"
            },
            {
              "internalType": "uint96",
              "name": "fee",
              "type": "uint96"
            },
            {
              "internalType": "uint96",
              "name": "minimumTransfer",
              "type": "uint96"
            },
            {
              "internalType": "contract IEmitter",
              "name": "emitter",
              "type": "address"
            },
            {
              "internalType": "address",
              "name": "feeCollector",
              "type": "address"
            },
            {
              "internalType": "contract ValidatorSet",
              "name": "validator",
              "type": "address"
            }
          ],
          "internalType": "struct Settings",
          "name": "in_settings",
          "type": "tuple"
        }
      ],
      "name": "owner_updateSettings",
      "outputs": [],
      "stateMutability": "nonpayable",
      "type": "function"
    },
    {
      "inputs": [
        {
          "internalType": "bytes",
          "name": "data",
          "type": "bytes"
        }
      ],
      "name": "receiveTokensFromRemoteChain",
      "outputs": [],
      "stateMutability": "nonpayable",
      "type": "function"
    },
    {
      "inputs": [],
      "name": "renounceOwnership",
      "outputs": [],
      "stateMutability": "nonpayable",
      "type": "function"
    },
    {
      "inputs": [
        {
          "internalType": "uint32",
          "name": "destChainId",
          "type": "uint32"
        },
        {
          "internalType": "address",
          "name": "recipient",
          "type": "address"
        }
      ],
      "name": "sendTokensToRemoteChain",
      "outputs": [],
      "stateMutability": "payable",
      "type": "function"
    },
    {
      "inputs": [
        {
          "internalType": "address",
          "name": "newOwner",
          "type": "address"
        }
      ],
      "name": "transferOwnership",
      "outputs": [],
      "stateMutability": "nonpayable",
      "type": "function"
    }
  ],
  "bytecode": "0x608060405234601e57631e4fbdf760e01b600052600060045260246000fd5b600080fdfe",
  "deployedBytecode": "0x6080604052600436101561001257600080fd5b60003560e01c806310bc6954146109925780633bd4e1ca1461093c578063599bcf5f1461066d578063715018a6146106145780638da5cb5b146105eb57806398de2d3314610454578063baef2d98146100ca5763f2fde38b1461007457600080fd5b346100c55760203660031901126100c55761008d610b24565b610095610cec565b6001600160a01b038116156100af576100ad90610d50565b005b631e4fbdf760e01b600052600060045260246000fd5b600080fd5b346100c55760203660031901126100c55760043567ffffffffffffffff81116100c557366023820112156100c55780600401359067ffffffffffffffff82116100c55736602483830101116100c557602490602061012784610bfa565b936101356040519586610bd8565b80855280600094859401838701378401015261016b610152610d15565b80516020918201206000190160009081522060ff191690565b60038101546001600160a01b031692610182610d97565b506005820193610190610d97565b508380528460205260ff604085205416610440576101ce92918491604051808096819463e5c5e9a360e01b8352602060048401526024830190610c39565b03915afa9384156104355783849385966102cf575b50845260209081526040808520805460ff1916600117905560e084015163ffffffff168552600492909201905282205490516001600160a01b0390811691168181036102b95750506060828051810103126102b6576040519161024583610b6d565b63ffffffff61025660208301610de2565b8085526040610272606082860151956020890196875201610df3565b9501948552169246840361029857519051610295916001600160a01b0316610c5e565b80f35b631d17a19960e31b83524663ffffffff166004526024849052604483fd5b80fd5b633306a7df60e01b835260045260245260449150fd5b95505091503d8084863e6102e38186610bd8565b840191848303610180811261043157610140865191601f190112610431576040519561030e87610b9f565b61031a60208201610df3565b875261032860408201610e07565b6020880152606081015161ffff8116810361042957604088015261034e60808201610de2565b606088015261035f60a08201610de2565b608088015261037060c08201610e07565b60a088015261038160e08201610de2565b60c08801526103936101008201610de2565b60e08801526103a56101208201610de2565b6101008801526103b86101408201610df3565b6101208801526101608101519067ffffffffffffffff8211610429570184601f8201121561042d578051906103ec82610bfa565b956103fa6040519788610bd8565b828752602083830101116104295760049493929161041e9160208089019101610c16565b9593959091926101e3565b8680fd5b8580fd5b8480fd5b6040513d85823e3d90fd5b6358d4764b60e01b84526004849052602484fd5b346100c55760e03660031901126100c55760405161047181610bbc565b60043560ff811681036100c557815260243561ffff811681036100c55760208201908152604435906001600160601b03821682036100c55760408301918252606435906001600160601b03821682036100c557606084019182526084356001600160a01b03811681036100c5576080850190815260a435916001600160a01b03831683036100c55760a0860192835260c435936001600160a01b03851685036100c55760039560c08801958652610526610cec565b60ff610533610152610d15565b985189549451925193516bffffffffffffffffffffffff60781b1992909116919091166001600160d81b03199094169390931760089190911b62ffff00161760189190911b6effffffffffffffffffffffff000000161760789190911b6bffffffffffffffffffffffff60781b16178555516001850180546001600160a01b03199081166001600160a01b03938416179091559151600286018054841691831691909117905591519290930180549093169116179055005b346100c55760003660031901126100c5576000546040516001600160a01b039091168152602090f35b346100c55760003660031901126100c55761062d610cec565b600080546001600160a01b0319811682556001600160a01b03167f8be0079c531659141344cd1fd0a4f28419497f9722a3daafe3b4186f6b6457e08280a3005b346100c5576101003660031901126100c557610687610b24565b60e03660231901126100c55760405161069f81610bbc565b60243560ff811681036100c55781526044359161ffff831683036100c55760208201928352606435926001600160601b03841684036100c55760408301938452608435906001600160601b03821682036100c5576060840191825260a4356001600160a01b03811681036100c5576080850190815260c435916001600160a01b03831683036100c55760a0860192835260e435936001600160a01b03851685036100c55760c08701948552600080516020610e16833981519152549760ff8960401c16159867ffffffffffffffff811680159081610934575b600114908161092a575b159081610921575b506109105767ffffffffffffffff198116600117600080516020610e16833981519152556003976107c1918b6108e3575b50610d50565b60ff6107ce610152610d15565b985189549451925193516bffffffffffffffffffffffff60781b1992909116919091166001600160d81b03199094169390931760089190911b62ffff00161760189190911b6effffffffffffffffffffffff000000161760789190911b6bffffffffffffffffffffffff60781b16178555516001850180546001600160a01b03199081166001600160a01b0393841617909155915160028601805484169183169190911790559151929093018054909316911617905561088a57005b68ff000000000000000019600080516020610e168339815191525416600080516020610e16833981519152557fc7f505b2f371ae2175ee4913f4499e1f2633a7b5936321eed1cdaeb6115181d2602060405160018152a1005b68ffffffffffffffffff19166801000000000000000117600080516020610e16833981519152558b6107bb565b63f92ee8a960e01b60005260046000fd5b9050158b61078a565b303b159150610782565b8b9150610778565b346100c55761094a36610b3a565b90610953610cec565b63ffffffff6004610965610152610d15565b01911660005260205260406000209060018060a01b03166001600160601b0360a01b825416179055600080f35b61099b36610b3a565b6109a6610152610d15565b908154906001600160601b038260781c1680341115610b0c575060028301546001600160a01b031693601883901c6001600160601b031693903485810391908211610af65760068301805491878301809311610af65760209561ffff95610a9394600094556001808060a01b039101541694604063ffffffff815194610a2b86610b6d565b1693848152898101928352019160018060a01b03168252604051928884015251604083015260018060a01b03905116606082015260608152610a6e608082610bd8565b604051635c134c4760e11b815260606004820152968795869485936064850190610c39565b9160ff8116602485015260081c16604483015203925af18015610aea57610abf575b506100ad91610c5e565b602090813d8311610ae3575b610ad58183610bd8565b810103126100c55782610ab5565b503d610acb565b6040513d6000823e3d90fd5b634e487b7160e01b600052601160045260246000fd5b634aa449af60e11b6000526004523460245260446000fd5b600435906001600160a01b03821682036100c557565b60409060031901126100c55760043563ffffffff811681036100c557906024356001600160a01b03811681036100c55790565b6060810190811067ffffffffffffffff821117610b8957604052565b634e487b7160e01b600052604160045260246000fd5b610140810190811067ffffffffffffffff821117610b8957604052565b60e0810190811067ffffffffffffffff821117610b8957604052565b90601f8019910116810190811067ffffffffffffffff821117610b8957604052565b67ffffffffffffffff8111610b8957601f01601f191660200190565b60005b838110610c295750506000910152565b8181015183820152602001610c19565b90602091610c5281518092818552858086019101610c16565b601f01601f1916010190565b814710610cd3576000918291829182916001600160a01b03165af13d15610ccb573d90610c8a82610bfa565b91610c986040519384610bd8565b82523d6000602084013e5b15610cab5750565b805115610cba57805190602001fd5b63d6bda27560e01b60005260046000fd5b606090610ca3565b504763cf47918160e01b60005260045260245260446000fd5b6000546001600160a01b03163303610d0057565b63118cdaa760e01b6000523360045260246000fd5b60405190610d24604083610bd8565b601d82527f4343434a5648364b44434d534852564837565a44564a464f49484a55330000006020830152565b600080546001600160a01b039283166001600160a01b03198216811783559216907f8be0079c531659141344cd1fd0a4f28419497f9722a3daafe3b4186f6b6457e09080a3565b60405190610da482610b9f565b6000610120838281528260208201528260408201528260608201528260808201528260a08201528260c08201528260e0820152826101008201520152565b519063ffffffff821682036100c557565b51906001600160a01b03821682036100c557565b519060ff821682036100c55756fef0c57e16840df040f15088dc2f81fe391c3923bec73e23a9662efc9c229c6a00a264697066735822122047981e3a410fb753589589c920446f8dc849db66f70c1de8af6d65458943ffad64736f6c634300081c0033",
  "linkReferences": {},
  "deployedLinkReferences": {}
}