{
  "_format": "hh-sol-artifact-1",
  "contractName": "BridgeToken",
  "sourceName": "contracts/BridgeToken.sol",
  "abi": [
    {
      "inputs": [
        {
          "internalType": "address",
          "name": "in_bridge",
          "type": "address"
        }
      ],
      "stateMutability": "nonpayable",
      "type": "constructor"
    },
    {
      "inputs": [
        {
          "internalType": "address",
          "name": "spender",
          "type": "address"
        },
        {
          "internalType": "uint256",
          "name": "value",
          "type": "uint256"
        }
      ],
      "name": "ERC1363ApproveFailed",
      "type": "error"
    },
    {
      "inputs": [
        {
          "internalType": "address",
          "name": "receiver",
          "type": "address"
        }
      ],
      "name": "ERC1363InvalidReceiver",
      "type": "error"
    },
    {
      "inputs": [
        {
          "internalType": "address",
          "name": "spender",
          "type": "address"
        }
      ],
      "name": "ERC1363InvalidSpender",
      "type": "error"
    },
    {
      "inputs": [
        {
          "internalType": "address",
          "name": "receiver",
          "type": "address"
        },
        {
          "internalType": "uint256",
          "name": "value",
          "type": "uint256"
        }
      ],
      "name": "ERC1363TransferFailed",
      "type": "error"
    },
    {
      "inputs": [
        {
          "internalType": "address",
          "name": "sender",
          "type": "address"
        },
        {
          "internalType": "address",
          "name": "receiver",
          "type": "address"
        },
        {
          "internalType": "uint256",
          "name": "value",
          "type": "uint256"
        }
      ],
      "name": "ERC1363TransferFromFailed",
      "type": "error"
    },
    {
      "inputs": [
        {
          "internalType": "address",
          "name": "spender",
          "type": "address"
        },
        {
          "internalType": "uint256",
          "name": "allowance",
          "type": "uint256"
        },
        {
          "internalType": "uint256",
          "name": "needed",
          "type": "uint256"
        }
      ],
      "name": "ERC20InsufficientAllowance",
      "type": "error"
    },
    {
      "inputs": [
        {
          "internalType": "address",
          "name": "sender",
          "type": "address"
        },
        {
          "internalType": "uint256",
          "name": "balance",
          "type": "uint256"
        },
        {
          "internalType": "uint256",
          "name": "needed",
          "type": "uint256"
        }
      ],
      "name": "ERC20InsufficientBalance",
      "type": "error"
    },
    {
      "inputs": [
        {
          "internalType": "address",
          "name": "approver",
          "type": "address"
        }
      ],
      "name": "ERC20InvalidApprover",
      "type": "error"
    },
    {
      "inputs": [
        {
          "internalType": "address",
          "name": "receiver",
          "type": "address"
        }
      ],
      "name": "ERC20InvalidReceiver",
      "type": "error"
    },
    {
      "inputs": [
        {
          "internalType": "address",
          "name": "sender",
          "type": "address"
        }
      ],
      "name": "ERC20InvalidSender",
      "type": "error"
    },
    {
      "inputs": [
        {
          "internalType": "address",
          "name": "spender",
          "type": "address"
        }
      ],
      "name": "ERC20InvalidSpender",
      "type": "error"
    },
    {
      "inputs": [],
      "name": "NotTheBridgeError",
      "type": "error"
    },
    {
      "inputs": [
        {
          "internalType": "address",
          "name": "owner",
          "type": "address"
        }
      ],
      "name": "OwnableInvalidOwner",
      "type": "error"
    },
    {
      "inputs": [
        {
          "internalType": "address",
          "name": "account",
          "type": "address"
        }
      ],
      "name": "OwnableUnauthorizedAccount",
      "type": "error"
    },
    {
      "anonymous": false,
      "inputs": [
        {
          "indexed": true,
          "internalType": "address",
          "name": "owner",
          "type": "address"
        },
        {
          "indexed": true,
          "internalType": "address",
          "name": "spender",
          "type": "address"
        },
        {
          "indexed": false,
          "internalType": "uint256",
          "name": "value",
          "type": "uint256"
        }
      ],
      "name": "Approval",
      "type": "event"
    },
    {
      "anonymous": false,
      "inputs": [
        {
          "indexed": true,
          "internalType": "address",
          "name": "previousOwner",
          "type": "address"
        },
        {
          "indexed": true,
          "internalType": "address",
          "name": "newOwner",
          "type": "address"
        }
      ],
      "name": "OwnershipTransferred",
      "type": "event"
    },
    {
      "anonymous": false,
      "inputs": [
        {
          "indexed": true,
          "internalType": "address",
          "name": "from",
          "type": "address"
        },
        {
          "indexed": true,
          "internalType": "address",
          "name": "to",
          "type": "address"
        },
        {
          "indexed": false,
          "internalType": "uint256",
          "name": "value",
          "type": "uint256"
        }
      ],
      "name": "Transfer",
      "type": "event"
    },
    {
      "inputs": [
        {
          "internalType": "address",
          "name": "owner",
          "type": "address"
        },
        {
          "internalType": "address",
          "name": "spender",
          "type": "address"
        }
      ],
      "name": "allowance",
      "outputs": [
        {
          "internalType": "uint256",
          "name": "",
          "type": "uint256"
        }
      ],
      "stateMutability": "view",
      "type": "function"
    },
    {
      "inputs": [
        {
          "internalType": "address",
          "name": "spender",
          "type": "address"
        },
        {
          "internalType": "uint256",
          "name": "value",
          "type": "uint256"
        }
      ],
      "name": "approve",
      "outputs": [
        {
          "internalType": "bool",
          "name": "",
          "type": "bool"
        }
      ],
      "stateMutability": "nonpayable",
      "type": "function"
    },
    {
      "inputs": [
        {
          "internalType": "address",
          "name": "spender",
          "type": "address"
        },
        {
          "internalType": "uint256",
          "name": "value",
          "type": "uint256"
        }
      ],
      "name": "approveAndCall",
      "outputs": [
        {
          "internalType": "bool",
          "name": "",
          "type": "bool"
        }
      ],
      "stateMutability": "nonpayable",
      "type": "function"
    },
    {
      "inputs": [
        {
          "internalType": "address",
          "name": "spender",
          "type": "address"
        },
        {
          "internalType": "uint256",
          "name": "value",
          "type": "uint256"
        },
        {
          "internalType": "bytes",
          "name": "data",
          "type": "bytes"
        }
      ],
      "name": "approveAndCall",
      "outputs": [
        {
          "internalType": "bool",
          "name": "",
          "type": "bool"
        }
      ],
      "stateMutability": "nonpayable",
      "type": "function"
    },
    {
      "inputs": [
        {
          "internalType": "address",
          "name": "account",
          "type": "address"
        }
      ],
      "name": "balanceOf",
      "outputs": [
        {
          "internalType": "uint256",
          "name": "",
          "type": "uint256"
        }
      ],
      "stateMutability": "view",
      "type": "function"
    },
    {
      "inputs": [
        {
          "internalType": "address",
          "name": "owner",
          "type": "address"
        },
        {
          "internalType": "uint256",
          "name": "amount",
          "type": "uint256"
        }
      ],
      "name": "bridge_burn",
      "outputs": [],
      "stateMutability": "nonpayable",
      "type": "function"
    },
    {
      "inputs": [
        {
          "internalType": "address",
          "name": "recipient",
          "type": "address"
        },
        {
          "internalType": "uint256",
          "name": "amount",
          "type": "uint256"
        }
      ],
      "name": "bridge_mint",
      "outputs": [],
      "stateMutability": "nonpayable",
      "type": "function"
    },
    {
      "inputs": [],
      "name": "decimals",
      "outputs": [
        {
          "internalType": "uint8",
          "name": "",
          "type": "uint8"
        }
      ],
      "stateMutability": "view",
      "type": "function"
    },
    {
      "inputs": [],
      "name": "getBridgeAddress",
      "outputs": [
        {
          "internalType": "address",
          "name": "",
          "type": "address"
        }
      ],
      "stateMutability": "view",
      "type": "function"
    },
    {
      "inputs": [],
      "name": "name",
      "outputs": [
        {
          "internalType": "string",
          "name": "",
          "type": "string"
        }
      ],
      "stateMutability": "view",
      "type": "function"
    },
    {
      "inputs": [
        {
          "internalType": "address",
          "name": "in_bridge",
          "type": "address"
        }
      ],
      "name": "onlyOwner_setBridge",
      "outputs": [],
      "stateMutability": "nonpayable",
      "type": "function"
    },
    {
      "inputs": [],
      "name": "owner",
      "outputs": [
        {
          "internalType": "address",
          "name": "",
          "type": "address"
        }
      ],
      "stateMutability": "view",
      "type": "function"
    },
    {
      "inputs": [],
      "name": "renounceOwnership",
      "outputs": [],
      "stateMutability": "nonpayable",
      "type": "function"
    },
    {
      "inputs": [
        {
          "internalType": "bytes4",
          "name": "interfaceId",
          "type": "bytes4"
        }
      ],
      "name": "supportsInterface",
      "outputs": [
        {
          "internalType": "bool",
          "name": "",
          "type": "bool"
        }
      ],
      "stateMutability": "view",
      "type": "function"
    },
    {
      "inputs": [],
      "name": "symbol",
      "outputs": [
        {
          "internalType": "string",
          "name": "",
          "type": "string"
        }
      ],
      "stateMutability": "view",
      "type": "function"
    },
    {
      "inputs": [],
      "name": "totalSupply",
      "outputs": [
        {
          "internalType": "uint256",
          "name": "",
          "type": "uint256"
        }
      ],
      "stateMutability": "view",
      "type": "function"
    },
    {
      "inputs": [
        {
          "internalType": "address",
          "name": "to",
          "type": "address"
        },
        {
          "internalType": "uint256",
          "name": "value",
          "type": "uint256"
        }
      ],
      "name": "transfer",
      "outputs": [
        {
          "internalType": "bool",
          "name": "",
          "type": "bool"
        }
      ],
      "stateMutability": "nonpayable",
      "type": "function"
    },
    {
      "inputs": [
        {
          "internalType": "address",
          "name": "to",
          "type": "address"
        },
        {
          "internalType": "uint256",
          "name": "value",
          "type": "uint256"
        }
      ],
      "name": "transferAndCall",
      "outputs": [
        {
          "internalType": "bool",
          "name": "",
          "type": "bool"
        }
      ],
      "stateMutability": "nonpayable",
      "type": "function"
    },
    {
      "inputs": [
        {
          "internalType": "address",
          "name": "to",
          "type": "address"
        },
        {
          "internalType": "uint256",
          "name": "value",
          "type": "uint256"
        },
        {
          "internalType": "bytes",
          "name": "data",
          "type": "bytes"
        }
      ],
      "name": "transferAndCall",
      "outputs": [
        {
          "internalType": "bool",
          "name": "",
          "type": "bool"
        }
      ],
      "stateMutability": "nonpayable",
      "type": "function"
    },
    {
      "inputs": [
        {
          "internalType": "address",
          "name": "from",
          "type": "address"
        },
        {
          "internalType": "address",
          "name": "to",
          "type": "address"
        },
        {
          "internalType": "uint256",
          "name": "value",
          "type": "uint256"
        }
      ],
      "name": "transferFrom",
      "outputs": [
        {
          "internalType": "bool",
          "name": "",
          "type": "bool"
        }
      ],
      "stateMutability": "nonpayable",
      "type": "function"
    },
    {
      "inputs": [
        {
          "internalType": "address",
          "name": "from",
          "type": "address"
        },
        {
          "internalType": "address",
          "name": "to",
          "type": "address"
        },
        {
          "internalType": "uint256",
          "name": "value",
          "type": "uint256"
        },
        {
          "internalType": "bytes",
          "name": "data",
          "type": "bytes"
        }
      ],
      "name": "transferFromAndCall",
      "outputs": [
        {
          "internalType": "bool",
          "name": "",
          "type": "bool"
        }
      ],
      "stateMutability": "nonpayable",
      "type": "function"
    },
    {
      "inputs": [
        {
          "internalType": "address",
          "name": "from",
          "type": "address"
        },
        {
          "internalType": "address",
          "name": "to",
          "type": "address"
        },
        {
          "internalType": "uint256",
          "name": "value",
          "type": "uint256"
        }
      ],
      "name": "transferFromAndCall",
      "outputs": [
        {
          "internalType": "bool",
          "name": "",
          "type": "bool"
        }
      ],
      "stateMutability": "nonpayable",
      "type": "function"
    },
    {
      "inputs": [
        {
          "internalType": "address",
          "name": "newOwner",
          "type": "address"
        }
      ],
      "name": "transferOwnership",
      "outputs": [],
      "stateMutability": "nonpayable",
      "type": "function"
    }
  ],
  "bytecode": "0x60806040523461040c576113e06020813803918261001c81610411565b93849283398101031261040c57516001600160a01b0381169081900361040c576100466040610411565b90600a8252694f6173697320524f534560b01b60208301526100686040610411565b906004825263524f534560e01b602083015233156103f65760008054336001600160a01b0319821681178355916001600160a01b03909116907f8be0079c531659141344cd1fd0a4f28419497f9722a3daafe3b4186f6b6457e09080a382516001600160401b0381116102ff57600454600181811c911680156103ec575b60208210146102df57601f8111610387575b506020601f82116001146103205781929394600092610315575b50508160011b916000199060031b1c1916176004555b81516001600160401b0381116102ff57600554600181811c911680156102f5575b60208210146102df57601f8111610296575b50602092601f82116001146102315792819293600092610226575b50508160011b916000199060031b1c1916176005555b6101966040610411565b601d81527f43334e53325050535855355854484548374a5a5646374d43324e365a460000006020909101527f886fa5ded9691589c35d6dd2fd0610634391e028d1ca2c9c830678a670758d2e6000527ff8dca51b8d2b4959d4f06344aa06e8f63347705a031b02994201d965cf3fab0080546001600160a01b0319169091179055604051610fa990816104378239f35b015190503880610176565b601f198216936005600052806000209160005b86811061027e5750836001959610610265575b505050811b0160055561018c565b015160001960f88460031b161c19169055388080610257565b91926020600181928685015181550194019201610244565b60056000526020600020601f830160051c810191602084106102d5575b601f0160051c01905b8181106102c9575061015b565b600081556001016102bc565b90915081906102b3565b634e487b7160e01b600052602260045260246000fd5b90607f1690610149565b634e487b7160e01b600052604160045260246000fd5b015190503880610112565b601f198216906004600052806000209160005b81811061036f57509583600195969710610356575b505050811b01600455610128565b015160001960f88460031b161c19169055388080610348565b9192602060018192868b015181550194019201610333565b60046000527f8a35acfbc15ff81a39ae7d344fd709f28e8600b4aa8c65c6b64bfe7fe36bd19b601f830160051c810191602084106103e2575b601f0160051c01905b8181106103d657506100f8565b600081556001016103c9565b90915081906103c0565b90607f16906100e6565b631e4fbdf760e01b600052600060045260246000fd5b600080fd5b6040519190601f01601f191682016001600160401b038111838210176102ff5760405256fe608080604052600436101561001357600080fd5b60003560e01c90816301ffc9a7146108ab5750806306fdde03146107ec578063095ea7b3146107c65780631296ee621461078957806318160ddd1461076b57806323b872dd146107525780633128948714610707578063313ce567146106eb5780633177029f146106b25780634000aea01461068e57806370a0823114610654578063715018a6146105fb57806382c5a771146105275780638da5cb5b146104fe578063907ac8db1461042557806395d89b4114610315578063a9059cbb146102e4578063c1d34b8914610292578063cae9ca5114610279578063d8fbe99414610244578063dd62ed3e146101f3578063f2fde38b1461016a5763fb32c5081461011c57600080fd5b346101655760003660031901126101655760206001600160a01b0361015b610142610d80565b80516020918201206000190160009081522060ff191690565b5416604051908152f35b600080fd5b346101655760203660031901126101655761018361093f565b61018b610d57565b6001600160a01b031680156101dd57600080546001600160a01b03198116831782556001600160a01b0316907f8be0079c531659141344cd1fd0a4f28419497f9722a3daafe3b4186f6b6457e09080a3005b631e4fbdf760e01b600052600060045260246000fd5b346101655760403660031901126101655761020c61093f565b610214610955565b6001600160a01b039182166000908152600260209081526040808320949093168252928352819020549051908152f35b3461016557602061026f6102573661096b565b906040519261026686856109a5565b60008452610b55565b6040519015158152f35b3461016557602061026f61028c36610a40565b91610ba1565b34610165576080366003190112610165576102ab61093f565b6102b3610955565b6064359067ffffffffffffffff8211610165576020926102da61026f9336906004016109f9565b9160443591610b55565b346101655760403660031901126101655761030a61030061093f565b6024359033610cbb565b602060405160018152f35b346101655760003660031901126101655760405160006005548060011c9060018116801561041b575b602083108114610407578285529081156103e35750600114610383575b61037f8361036b818503826109a5565b6040519182916020835260208301906108fe565b0390f35b91905060056000527f036b6384b5eca791c62761152d0c79bb0604c104a5fb6f4eb0703f3154bb3db0916000905b8082106103c95750909150810160200161036b61035b565b9192600181602092548385880101520191019092916103b1565b60ff191660208086019190915291151560051b8401909101915061036b905061035b565b634e487b7160e01b84526022600452602484fd5b91607f169161033e565b346101655760403660031901126101655761043e61093f565b602435906001600160a01b03610455610142610d80565b541633036104ed576001600160a01b031680156104d757600354918083018093116104c1576020926003557fddf252ad1be2c89b69c2b068fc378daa952ba7f163c4a11628f55a4df523b3ef60009384928484526001825260408420818154019055604051908152a380f35b634e487b7160e01b600052601160045260246000fd5b63ec442f0560e01b600052600060045260246000fd5b633103656f60e11b60005260046000fd5b34610165576000366003190112610165576000546040516001600160a01b039091168152602090f35b346101655760403660031901126101655761054061093f565b602435906001600160a01b03610557610142610d80565b541633036104ed576001600160a01b03169081156105e557600090828252600160205260408220548181106105cd5760208285937fddf252ad1be2c89b69c2b068fc378daa952ba7f163c4a11628f55a4df523b3ef9386978752600184520360408620558060035403600355604051908152a380f35b60649363391434e360e21b8452600452602452604452fd5b634b637e8f60e11b600052600060045260246000fd5b3461016557600036600319011261016557610614610d57565b600080546001600160a01b0319811682556001600160a01b03167f8be0079c531659141344cd1fd0a4f28419497f9722a3daafe3b4186f6b6457e08280a3005b34610165576020366003190112610165576001600160a01b0361067561093f565b1660005260016020526020604060002054604051908152f35b346101655761030a61069f36610a40565b916106ab828233610cbb565b3333610e0b565b3461016557604036600319011261016557602061026f6106d061093f565b604051906106de84836109a5565b6000825260243590610ba1565b3461016557600036600319011261016557602060405160128152f35b346101655760203660031901126101655761072061093f565b610728610d57565b610733610142610d80565b80546001600160a01b0319166001600160a01b03909216919091179055005b3461016557602061026f6107653661096b565b91610a86565b34610165576000366003190112610165576020600354604051908152f35b346101655760403660031901126101655761030a6107a561093f565b602435604051916107b76020846109a5565b600083526106ab828233610cbb565b346101655760403660031901126101655761030a6107e261093f565b6024359033610f0c565b346101655760003660031901126101655760405160006004548060011c906001811680156108a1575b602083108114610407578285529081156103e357506001146108415761037f8361036b818503826109a5565b91905060046000527f8a35acfbc15ff81a39ae7d344fd709f28e8600b4aa8c65c6b64bfe7fe36bd19b916000905b8082106108875750909150810160200161036b61035b565b91926001816020925483858801015201910190929161086f565b91607f1691610815565b34610165576020366003190112610165576004359063ffffffff60e01b82168092036101655760209163b0202a1160e01b81149081156108ed575b5015158152f35b6301ffc9a760e01b149050836108e6565b919082519283825260005b84811061092a575050826000602080949584010152601f8019910116010190565b80602080928401015182828601015201610909565b600435906001600160a01b038216820361016557565b602435906001600160a01b038216820361016557565b6060906003190112610165576004356001600160a01b038116810361016557906024356001600160a01b0381168103610165579060443590565b90601f8019910116810190811067ffffffffffffffff8211176109c757604052565b634e487b7160e01b600052604160045260246000fd5b67ffffffffffffffff81116109c757601f01601f191660200190565b81601f8201121561016557803590610a10826109dd565b92610a1e60405194856109a5565b8284526020838301011161016557816000926020809301838601378301015290565b6060600319820112610165576004356001600160a01b03811681036101655791602435916044359067ffffffffffffffff821161016557610a83916004016109f9565b90565b6001600160a01b038116600081815260026020908152604080832033845290915290205490939291906000198110610ac9575b50610ac49350610cbb565b600190565b838110610b38578415610b22573315610b0c57610ac4946000526002602052604060002060018060a01b0333166000526020528360406000209103905538610ab9565b634a1406b160e11b600052600060045260246000fd5b63e602df0560e01b600052600060045260246000fd5b8390637dc7a0d960e11b6000523360045260245260445260646000fd5b93929190610b64828287610a86565b15610b7457610ac4939433610e0b565b635ab42af360e11b60009081526001600160a01b0380871660045291909116602452604491909152606490fd5b919091610baf838233610f0c565b803b15610c9a576040516307b04a2d60e41b81523360048201526024810193909352606060448401526001600160a01b0316919060209082908190610bf89060648301906108fe565b03816000865af160009181610c69575b50610c385750610c16610ddb565b80519081610c33578263deb6d3ed60e01b60005260045260246000fd5b602001fd5b6001600160e01b03191663084fb5d360e41b01610c555750600190565b63deb6d3ed60e01b60005260045260246000fd5b610c8c91925060203d602011610c93575b610c8481836109a5565b810190610dbb565b9038610c08565b503d610c7a565b63deb6d3ed60e01b60009081526001600160a01b0391909116600452602490fd5b6001600160a01b03169081156105e5576001600160a01b03169182156104d757600082815260016020526040812054828110610d3d5791604082827fddf252ad1be2c89b69c2b068fc378daa952ba7f163c4a11628f55a4df523b3ef9587602096526001865203828220558681526001845220818154019055604051908152a3565b916064928463391434e360e21b8452600452602452604452fd5b6000546001600160a01b03163303610d6b57565b63118cdaa760e01b6000523360045260246000fd5b60405190610d8f6040836109a5565b601d82527f43334e53325050535855355854484548374a5a5646374d43324e365a460000006020830152565b9081602091031261016557516001600160e01b0319811681036101655790565b3d15610e06573d90610dec826109dd565b91610dfa60405193846109a5565b82523d6000602084013e565b606090565b9091803b15610eeb57604051632229f29760e21b81526001600160a01b03928316600482015292821660248401526044830193909352608060648301529091169160209082908190610e619060848301906108fe565b03816000865af160009181610eca575b50610e9c5750610e7f610ddb565b80519081610c3357826322a5b36760e21b60005260045260246000fd5b6001600160e01b031916631dd60d6960e21b01610eb65750565b6322a5b36760e21b60005260045260246000fd5b610ee491925060203d602011610c9357610c8481836109a5565b9038610e71565b6322a5b36760e21b60009081526001600160a01b0391909116600452602490fd5b6001600160a01b0316908115610b22576001600160a01b0316918215610b0c5760207f8c5be1e5ebec7d5bd14f71427d1e84f3dd0314c0f7b2291e5b200ac8c7c3b925918360005260028252604060002085600052825280604060002055604051908152a356fea26469706673582212204a3027e6589abf7e57c6f237b01c6eba4047dbe73558914c789f7b2030d8212164736f6c634300081c0033",
  "linkReferences": {},
  "deployedLinkReferences": {}
}