{
  "_format": "hh-sol-artifact-1",
  "contractName": "MessageDecoderV1",
  "sourceName": "contracts/MessageDecoderV1.sol",
  "abi": [
    {
      "inputs": [
        {
          "internalType": "bytes32",
          "name": "messageId",
          "type": "bytes32"
        },
        {
          "internalType": "address",
          "name": "signer",
          "type": "address"
        }
      ],
      "name": "DuplicateSignatureError",
      "type": "error"
    },
    {
      "inputs": [
        {
          "internalType": "bytes32",
          "name": "messageId",
          "type": "bytes32"
        },
        {
          "internalType": "uint8",
          "name": "ecdsaRecoverError",
          "type": "uint8"
        }
      ],
      "name": "InvalidSignatureError",
      "type": "error"
    },
    {
      "inputs": [
        {
          "internalType": "bytes32",
          "name": "messageId",
          "type": "bytes32"
        }
      ],
      "name": "NoSignaturesError",
      "type": "error"
    },
    {
      "inputs": [
        {
          "internalType": "uint8",
          "name": "actual",
          "type": "uint8"
        },
        {
          "internalType": "uint8",
          "name": "expected",
          "type": "uint8"
        }
      ],
      "name": "UnexpectedVersionError",
      "type": "error"
    },
    {
      "inputs": [
        {
          "internalType": "bytes",
          "name": "data",
          "type": "bytes"
        }
      ],
      "name": "decodeSigned",
      "outputs": [
        {
          "internalType": "bytes32",
          "name": "messageId",
          "type": "bytes32"
        },
        {
          "components": [
            {
              "internalType": "address",
              "name": "emitterContract",
              "type": "address"
            },
            {
              "internalType": "uint8",
              "name": "validAfterNBlocks",
              "type": "uint8"
            },
            {
              "internalType": "uint16",
              "name": "validAfterNSeconds",
              "type": "uint16"
            },
            {
              "internalType": "uint32",
              "name": "blockHeight",
              "type": "uint32"
            },
            {
              "internalType": "uint32",
              "name": "a_reserved",
              "type": "uint32"
            },
            {
              "internalType": "uint8",
              "name": "messageVersion",
              "type": "uint8"
            },
            {
              "internalType": "uint32",
              "name": "sequence",
              "type": "uint32"
            },
            {
              "internalType": "uint32",
              "name": "srcChainId",
              "type": "uint32"
            },
            {
              "internalType": "uint32",
              "name": "timestamp",
              "type": "uint32"
            },
            {
              "internalType": "address",
              "name": "sender",
              "type": "address"
            }
          ],
          "internalType": "struct MessageOriginV1",
          "name": "origin",
          "type": "tuple"
        },
        {
          "internalType": "bytes",
          "name": "message",
          "type": "bytes"
        },
        {
          "internalType": "address[]",
          "name": "signers",
          "type": "address[]"
        }
      ],
      "stateMutability": "pure",
      "type": "function"
    },
    {
      "inputs": [
        {
          "internalType": "bytes",
          "name": "data",
          "type": "bytes"
        }
      ],
      "name": "decodeUnsigned",
      "outputs": [
        {
          "internalType": "bytes32",
          "name": "messageId",
          "type": "bytes32"
        },
        {
          "components": [
            {
              "internalType": "address",
              "name": "emitterContract",
              "type": "address"
            },
            {
              "internalType": "uint8",
              "name": "validAfterNBlocks",
              "type": "uint8"
            },
            {
              "internalType": "uint16",
              "name": "validAfterNSeconds",
              "type": "uint16"
            },
            {
              "internalType": "uint32",
              "name": "blockHeight",
              "type": "uint32"
            },
            {
              "internalType": "uint32",
              "name": "a_reserved",
              "type": "uint32"
            },
            {
              "internalType": "uint8",
              "name": "messageVersion",
              "type": "uint8"
            },
            {
              "internalType": "uint32",
              "name": "sequence",
              "type": "uint32"
            },
            {
              "internalType": "uint32",
              "name": "srcChainId",
              "type": "uint32"
            },
            {
              "internalType": "uint32",
              "name": "timestamp",
              "type": "uint32"
            },
            {
              "internalType": "address",
              "name": "sender",
              "type": "address"
            }
          ],
          "internalType": "struct MessageOriginV1",
          "name": "origin",
          "type": "tuple"
        },
        {
          "internalType": "bytes",
          "name": "message",
          "type": "bytes"
        }
      ],
      "stateMutability": "pure",
      "type": "function"
    }
  ],
  "bytecode": "0x60808060405234601557610919908161001b8239f35b600080fdfe6080604052600436101561001257600080fd5b6000803560e01c80637a12cf971461011d5763cee4a0ff1461003357600080fd5b3461010657610041366104b2565b909161004b610655565b50610054610655565b5060408211156101065781156101095781600110156101095761008f600184013560f81c84356001600160f81b031916600160f81b14610727565b81604011610106576100d96100ae6101029260408601958691506106b8565b92603f1901936100d16100cb6100c53688856106e0565b86610814565b94610776565b9436916106e0565b6100ee60405194859485526020850190610508565b6101806101608401526101808301906105a3565b0390f35b80fd5b634e487b7160e01b81526032600452602490fd5b50346101065761012c366104b2565b610134610655565b5061013d610655565b508101906020818303126104615780359067ffffffffffffffff821161046557019160808383031261010657604051916060830183811067ffffffffffffffff82111761049e57604052833567ffffffffffffffff811161046157840181601f820112156104615780356101b0816106a0565b916101be6040519384610633565b81835260208084019260061b8201019084821161049a57602001915b8183106104695750505083526101f381602086016106b8565b936020840194855260608101359067ffffffffffffffff8211610465570181601f82011215610461579081602061022c933591016106e0565b9081604084015282515191610242818651610814565b9461024c846106a0565b9361025a6040519586610633565b808552610266816106a0565b602086019690601f190136883785511561044d578497969593975b8281106103b3575050835b8181106103245750506102e16102a460209251610776565b966102b960ff60a08a01511660018114610727565b6102cd604051988998895284890190610508565b6101a06101608801526101a08701906105a3565b9185830361018087015251918281520192915b818110610302575050500390f35b82516001600160a01b03168452859450602093840193909201916001016102f4565b8497939596975b8281106103405750600101969594929661028c565b8082146103ab576001600160a01b03610359838961074c565b51166001600160a01b0361036d838a61074c565b5116146001600160a01b03610382848a61074c565b51169061039457506001905b0161032b565b630e2c5ebf60e31b875260048a9052602452604486fd5b60019061038e565b6103ea6103c682849b97999a9b5161074c565b5180516020909101516001600160ff1b038116919060ff90811c601b01168c61084e565b50906103f6838a61074c565b6001600160a01b0390911690526004811015610439578061041f57506001019796959397610281565b6339580f4160e21b875260048a905260ff16602452604486fd5b634e487b7160e01b87526021600452602487fd5b639f32698560e01b85526004889052602485fd5b8280fd5b8380fd5b60408386031261049a5760206040918251610483816105e4565b8535815282860135838201528152019201916101da565b8580fd5b634e487b7160e01b83526041600452602483fd5b9060206003198301126105035760043567ffffffffffffffff811161050357826023820112156105035780600401359267ffffffffffffffff84116105035760248483010111610503576024019190565b600080fd5b6101209060018060a01b03815116835260ff602082015116602084015261ffff604082015116604084015263ffffffff606082015116606084015263ffffffff608082015116608084015260ff60a08201511660a084015263ffffffff60c08201511660c084015263ffffffff60e08201511660e084015263ffffffff610100820151166101008401528160018060a01b0391015116910152565b919082519283825260005b8481106105cf575050826000602080949584010152601f8019910116010190565b806020809284010151828286010152016105ae565b6040810190811067ffffffffffffffff82111761060057604052565b634e487b7160e01b600052604160045260246000fd5b610140810190811067ffffffffffffffff82111761060057604052565b90601f8019910116810190811067ffffffffffffffff82111761060057604052565b6040519061066282610616565b6000610120838281528260208201528260408201528260608201528260808201528260a08201528260c08201528260e0820152826101008201520152565b67ffffffffffffffff81116106005760051b60200190565b9190826040910312610503576040516106d0816105e4565b6020808294803584520135910152565b92919267ffffffffffffffff8211610600576040519161070a601f8201601f191660200184610633565b829481845281830111610503578281602093846000960137010152565b1561072f5750565b60ff906328cd474360e21b60005216600452600160245260446000fd5b80518210156107605760209160051b010190565b634e487b7160e01b600052603260045260246000fd5b61077e610655565b50602081519101516040519161079383610616565b60018060a01b038116835260ff8160a01c16602084015261ffff8160a81c16604084015263ffffffff8160b81c16606084015263ffffffff8160d81c16608084015260f81c60a083015263ffffffff811660c083015263ffffffff8160201c1660e083015263ffffffff8160401c1661010083015260601c61012082015290565b9060208151910120602082519201519060405191602083019384526040830152606082015260608152610848608082610633565b51902090565b91907f7fffffffffffffffffffffffffffffff5d576e7357a4501ddfe92f46681b20a084116108d7579160209360809260ff60009560405194855216868401526040830152606082015282805260015afa156108cb576000516001600160a01b038116156108bf5790600090600090565b50600090600190600090565b6040513d6000823e3d90fd5b5050506000916003919056fea2646970667358221220275e23ac9d210239af74b7e5dcda080bb88efdf9912d98871b7bac48a442dd9764736f6c634300081c0033",
  "linkReferences": {},
  "deployedLinkReferences": {}
}