{
  "_format": "hh-sol-artifact-1",
  "contractName": "MessageEmitterV1",
  "sourceName": "contracts/MessageEmitterV1.sol",
  "abi": [
    {
      "inputs": [
        {
          "internalType": "contract MessageDecoderV1",
          "name": "in_decoder",
          "type": "address"
        }
      ],
      "stateMutability": "nonpayable",
      "type": "constructor"
    },
    {
      "anonymous": false,
      "inputs": [
        {
          "indexed": false,
          "internalType": "bytes32",
          "name": "messageId",
          "type": "bytes32"
        },
        {
          "indexed": false,
          "internalType": "bytes",
          "name": "packedOriginAndMessage",
          "type": "bytes"
        }
      ],
      "name": "OnMessage",
      "type": "event"
    },
    {
      "inputs": [
        {
          "internalType": "bytes",
          "name": "data",
          "type": "bytes"
        }
      ],
      "name": "decodeSigned",
      "outputs": [
        {
          "internalType": "bytes32",
          "name": "messageId",
          "type": "bytes32"
        },
        {
          "components": [
            {
              "internalType": "address",
              "name": "emitterContract",
              "type": "address"
            },
            {
              "internalType": "uint8",
              "name": "validAfterNBlocks",
              "type": "uint8"
            },
            {
              "internalType": "uint16",
              "name": "validAfterNSeconds",
              "type": "uint16"
            },
            {
              "internalType": "uint32",
              "name": "blockHeight",
              "type": "uint32"
            },
            {
              "internalType": "uint32",
              "name": "a_reserved",
              "type": "uint32"
            },
            {
              "internalType": "uint8",
              "name": "messageVersion",
              "type": "uint8"
            },
            {
              "internalType": "uint32",
              "name": "sequence",
              "type": "uint32"
            },
            {
              "internalType": "uint32",
              "name": "srcChainId",
              "type": "uint32"
            },
            {
              "internalType": "uint32",
              "name": "timestamp",
              "type": "uint32"
            },
            {
              "internalType": "address",
              "name": "sender",
              "type": "address"
            }
          ],
          "internalType": "struct MessageOriginV1",
          "name": "origin",
          "type": "tuple"
        },
        {
          "internalType": "bytes",
          "name": "message",
          "type": "bytes"
        },
        {
          "internalType": "address[]",
          "name": "signers",
          "type": "address[]"
        }
      ],
      "stateMutability": "view",
      "type": "function"
    },
    {
      "inputs": [],
      "name": "decoder",
      "outputs": [
        {
          "internalType": "contract MessageDecoderV1",
          "name": "",
          "type": "address"
        }
      ],
      "stateMutability": "view",
      "type": "function"
    },
    {
      "inputs": [
        {
          "internalType": "bytes",
          "name": "message",
          "type": "bytes"
        },
        {
          "internalType": "uint8",
          "name": "validAfterNBlocks",
          "type": "uint8"
        },
        {
          "internalType": "uint16",
          "name": "validAfterNSeconds",
          "type": "uint16"
        }
      ],
      "name": "send",
      "outputs": [
        {
          "internalType": "bytes32",
          "name": "",
          "type": "bytes32"
        }
      ],
      "stateMutability": "nonpayable",
      "type": "function"
    }
  ],
  "bytecode": "0x60a034606d57601f6109b638819003918201601f19168301916001600160401b03831184841017607257808492602094604052833981010312606d57516001600160a01b0381168103606d5760805260405161092d9081610089823960805181818161037d01526104810152f35b600080fd5b634e487b7160e01b600052604160045260246000fdfe608080604052600436101561001357600080fd5b60003560e01c9081637a12cf97146103ac575080639cb33005146103675763b826988e1461004057600080fd5b346103625760603660031901126103625760043567ffffffffffffffff811161036257366023820112156103625780600401359061007d8261088f565b9161008b604051938461086d565b8083526020830191366024838301011161036257816000926024602093018537840101526024359160ff8316809303610362576044359161ffff831680930361036257604092602084516100df868261086d565b601d81527f37494a504350455046495356355743354c555047524d4354433741355a0000009101527f7a553f980d35314afc500a5c63dc1b360d9905f816bb3b2808ecaeb126c09fb26000527f845a02338ccb412f586c8107829d940c2099089c00bb3f1f03fad04f003578008054959063ffffffff80881660010190811161034c5763ffffffff16809763ffffffff191617905561017c6108de565b508451916101898361081e565b30835260208301918252858301908152606083014363ffffffff168152608084016000815260a08501916001835260c08601998a5260e08601934663ffffffff1685526101008701954263ffffffff1687526101208801973389526101ec6108de565b506101f56108de565b50600160a01b600190039051169060ff60a01b905160a01b16179061ffff60a81b905160a81b16179063ffffffff60b81b905160b81b16179063ffffffff60d81b905160d81b16179060ff60f81b905160f81b1617965163ffffffff16905160201b67ffffffff0000000016179051851b6bffffffff00000000000000001617906bffffffffffffffffffffffff19905160601b16179083519461029886610851565b80865260208601928084528451832086519160208301938452878301526060820152606081526102c960808261086d565b51902094519151928451938493602085015285840152519081606084016102ef926107d6565b810103606001601f1981018252610306908261086d565b8151809184825283602083015283820161031f916107f9565b037fd777b82b2048a03963e9ca6d896dad35c86c294733c712ea13857d72dbad7fbb91a151908152602090f35b634e487b7160e01b600052601160045260246000fd5b600080fd5b34610362576000366003190112610362576040517f00000000000000000000000000000000000000000000000000000000000000006001600160a01b03168152602090f35b34610362576020366003190112610362576004359067ffffffffffffffff821161036257366023830112156103625781600401359167ffffffffffffffff8311610362573660248483010111610362576044602491600061012085610411839761081e565b8281528260208201528260408201528260608201528260808201528260a08201528260c08201528260e0820152826101008201520152846040519586948593637a12cf9760e01b855260206004860152828286015201848401378181018301859052601f01601f191681010301817f00000000000000000000000000000000000000000000000000000000000000006001600160a01b03165afa9081156107ca5760009182839084926105c9575b93925061058090604051948594855260018060a01b03815116602086015260ff602082015116604086015261ffff604082015116606086015263ffffffff606082015116608086015263ffffffff60808201511660a086015260ff60a08201511660c086015263ffffffff60c08201511660e086015263ffffffff60e08201511661010086015263ffffffff6101008201511661012086015261012060018060a01b03910151166101408501526101a06101608501526101a08401906107f9565b8281036101808401526020808351928381520192019060005b8181106105a7575050500390f35b82516001600160a01b0316845285945060209384019390920191600101610599565b5050503d8083833e6105db818361086d565b810190808203916101a083126107c657610140825193601f1901126107c657604051926106078461081e565b610613602084016108ab565b8452610621604084016108bf565b6020850152606083015161ffff811681036107ba576040850152610647608084016108cd565b606085015261065860a084016108cd565b608085015261066960c084016108bf565b60a085015261067a60e084016108cd565b60c085015261068c61010084016108cd565b60e085015261069e61012084016108cd565b6101008501526106b161014084016108ab565b61012085015261016083015167ffffffffffffffff81116107ba5783019282601f850112156107ba578351936106e68561088f565b946106f4604051968761086d565b80865284602082840101116107c25761071391602080880191016107d6565b6101808101519067ffffffffffffffff82116107be57019180601f840112156107ba5782519267ffffffffffffffff84116107a6578360051b966040519461075e60208a018761086d565b85526020808601988301019283116107a35750602001955b81871061078b575090945090919050826104bf565b60208091610798896108ab565b815201960195610776565b80fd5b634e487b7160e01b87526041600452602487fd5b8580fd5b8680fd5b8780fd5b8380fd5b6040513d6000823e3d90fd5b60005b8381106107e95750506000910152565b81810151838201526020016107d9565b90602091610812815180928185528580860191016107d6565b601f01601f1916010190565b610140810190811067ffffffffffffffff82111761083b57604052565b634e487b7160e01b600052604160045260246000fd5b6040810190811067ffffffffffffffff82111761083b57604052565b90601f8019910116810190811067ffffffffffffffff82111761083b57604052565b67ffffffffffffffff811161083b57601f01601f191660200190565b51906001600160a01b038216820361036257565b519060ff8216820361036257565b519063ffffffff8216820361036257565b604051906108eb82610851565b6000602083828152015256fea2646970667358221220fef3d194be394ac5a289b59dc2e649e51330054555b58c8eb0cd9010dbc1588c64736f6c634300081c0033",
  "linkReferences": {},
  "deployedLinkReferences": {}
}