{
  "_format": "hh-sol-artifact-1",
  "contractName": "SignatureCollector",
  "sourceName": "contracts/SignatureCollector.sol",
  "abi": [
    {
      "inputs": [
        {
          "internalType": "bytes32",
          "name": "messageId",
          "type": "bytes32"
        },
        {
          "internalType": "address",
          "name": "signer",
          "type": "address"
        }
      ],
      "name": "DuplicateSignatureError",
      "type": "error"
    },
    {
      "inputs": [
        {
          "internalType": "bytes32",
          "name": "messageId",
          "type": "bytes32"
        },
        {
          "internalType": "uint8",
          "name": "ecdsaRecoverError",
          "type": "uint8"
        }
      ],
      "name": "InvalidSignatureError",
      "type": "error"
    },
    {
      "inputs": [
        {
          "internalType": "bytes32",
          "name": "messageId",
          "type": "bytes32"
        },
        {
          "internalType": "address",
          "name": "signer",
          "type": "address"
        }
      ],
      "name": "SignerNotAllowedError",
      "type": "error"
    },
    {
      "inputs": [
        {
          "components": [
            {
              "internalType": "uint256",
              "name": "a",
              "type": "uint256"
            },
            {
              "internalType": "uint256",
              "name": "b",
              "type": "uint256"
            }
          ],
          "internalType": "struct PackedOrigin",
          "name": "packedOrigin",
          "type": "tuple"
        },
        {
          "internalType": "bytes32",
          "name": "messageHash",
          "type": "bytes32"
        },
        {
          "components": [
            {
              "internalType": "bytes32",
              "name": "r",
              "type": "bytes32"
            },
            {
              "internalType": "bytes32",
              "name": "sv",
              "type": "bytes32"
            }
          ],
          "internalType": "struct Signature",
          "name": "sig",
          "type": "tuple"
        }
      ],
      "name": "collect_signature",
      "outputs": [],
      "stateMutability": "nonpayable",
      "type": "function"
    },
    {
      "inputs": [
        {
          "internalType": "bytes32",
          "name": "messageId",
          "type": "bytes32"
        }
      ],
      "name": "signatures_count",
      "outputs": [
        {
          "internalType": "uint256",
          "name": "",
          "type": "uint256"
        }
      ],
      "stateMutability": "view",
      "type": "function"
    },
    {
      "inputs": [
        {
          "internalType": "bytes32",
          "name": "messageId",
          "type": "bytes32"
        }
      ],
      "name": "signatures_fetch",
      "outputs": [
        {
          "components": [
            {
              "internalType": "bytes32",
              "name": "r",
              "type": "bytes32"
            },
            {
              "internalType": "bytes32",
              "name": "sv",
              "type": "bytes32"
            }
          ],
          "internalType": "struct Signature[]",
          "name": "",
          "type": "tuple[]"
        }
      ],
      "stateMutability": "view",
      "type": "function"
    },
    {
      "inputs": [
        {
          "internalType": "bytes32",
          "name": "messageId",
          "type": "bytes32"
        }
      ],
      "name": "signers_fetch",
      "outputs": [
        {
          "internalType": "address[]",
          "name": "",
          "type": "address[]"
        }
      ],
      "stateMutability": "view",
      "type": "function"
    }
  ],
  "bytecode": "0x60808060405234601557610768908161001b8239f35b600080fdfe6080604052600436101561001257600080fd5b60003560e01c80632fb2333a146104935780635a1680c4146103965780636bc2ab391461007f57638b18c7561461004857600080fd5b3461007a57602036600319011261007a576100616105ac565b6004356000526020526020604060002054604051908152f35b600080fd5b3461007a57366003190160a0811261007a5760401361007a576040516100a481610551565b600435808252602435602083018181529190604036606319011261007a57604051906020820192835260408201526044356060820152606081526100e960808261058a565b51902060843592906064356101116001600160ff1b0386168260ff88811c601b01168561062a565b5094909260048610156103805760009580610365575061012f6105ac565b8187526020526040862091600183019460018060a01b031695610162878760019160005201602052604060002054151590565b61034e579061012063ffffffff92898260405161017e8161056d565b8281528260208201528260408201528260608201528260808201528260a08201528260c08201528260e0820152826101008201520152519151918260601c938493604051926101cc8461056d565b60018060a01b038116845260ff8160a01c16602085015261ffff8160a81c166040850152828160b81c166060850152828160d81c16608085015260f81c60a084015281811660c0840152818160201c1660e084015260401c166101008201520152803b6102b5575b50506040519161024383610551565b825260208201958652805490600160401b8210156102a1576001820180825582101561028d5795600191869761028997526020882090831b0192518355519101556106bf565b5080f35b634e487b7160e01b86526032600452602486fd5b634e487b7160e01b86526041600452602486fd5b60206024916040519283809263dddf6ff960e01b82528a60048301525afa908115610343578791610304575b50156102ed5780610234565b639fd2121760e01b86526004526024849052604485fd5b90506020813d60201161033b575b8161031f6020938361058a565b810103126103375751801515810361033757886102e1565b8680fd5b3d9150610312565b6040513d89823e3d90fd5b6044888885630e2c5ebf60e31b8352600452602452fd5b6339580f4160e21b875260049190915260ff16602452604485fd5b634e487b7160e01b600052602160045260246000fd5b3461007a57602036600319011261007a576103af6105ac565b600435600052602052604060002080549067ffffffffffffffff821161047d57604051916103e360208260051b018461058a565b80835260208301809260005260206000206000915b8383106104505784866040519182916020830190602084525180915260408301919060005b81811061042b575050500390f35b825180518552602090810151818601528695506040909401939092019160010161041d565b6002602060019260405161046381610551565b8554815284860154838201528152019201920191906103f8565b634e487b7160e01b600052604160045260246000fd5b3461007a57602036600319011261007a576104ac6105ac565b60043560005260205260016040600020016040518060208354918281520190819360005260206000209060005b81811061053b57505050816104ef91038261058a565b6040519182916020830190602084525180915260408301919060005b818110610519575050500390f35b82516001600160a01b031684528594506020938401939092019160010161050b565b82548452602090930192600192830192016104d9565b6040810190811067ffffffffffffffff82111761047d57604052565b610140810190811067ffffffffffffffff82111761047d57604052565b90601f8019910116810190811067ffffffffffffffff82111761047d57604052565b60206040516105ba81610551565b601d81527f4b555346554757593648434a35484741485355514c4e544b37493253330000009101527f921d2229fbecfe34ef1a60e5d1350f39eff60f6aa654b575a61419089d68bf166000527f29fc7f3533ecde2f08250effa2ace6ce0fac8cd2d42cfe0874809b3655e41f0090565b91907f7fffffffffffffffffffffffffffffff5d576e7357a4501ddfe92f46681b20a084116106b3579160209360809260ff60009560405194855216868401526040830152606082015282805260015afa156106a7576000516001600160a01b0381161561069b5790600090600090565b50600090600190600090565b6040513d6000823e3d90fd5b50505060009160039190565b600082815260018201602052604090205461072b57805490600160401b82101561047d57600182018082558210156107155782600192826000526020600020015580549260005201602052604060002055600190565b634e487b7160e01b600052603260045260246000fd5b505060009056fea26469706673582212205a0389fe2f9b2438882c713dd289714c5c7f761de4b58dcbbf5a55aa517f685d64736f6c634300081c0033",
  "linkReferences": {},
  "deployedLinkReferences": {}
}