{
  "_format": "hh-sol-artifact-1",
  "contractName": "ValidatorSet",
  "sourceName": "contracts/ValidatorSet.sol",
  "abi": [
    {
      "inputs": [
        {
          "internalType": "address",
          "name": "owner",
          "type": "address"
        },
        {
          "internalType": "address[]",
          "name": "initial_signers",
          "type": "address[]"
        },
        {
          "internalType": "uint256",
          "name": "initial_threshold",
          "type": "uint256"
        }
      ],
      "stateMutability": "nonpayable",
      "type": "constructor"
    },
    {
      "inputs": [
        {
          "internalType": "bytes32",
          "name": "messageId",
          "type": "bytes32"
        },
        {
          "internalType": "address",
          "name": "signer",
          "type": "address"
        }
      ],
      "name": "DuplicateSignatureError",
      "type": "error"
    },
    {
      "inputs": [
        {
          "internalType": "bytes32",
          "name": "messageId",
          "type": "bytes32"
        },
        {
          "internalType": "uint8",
          "name": "ecdsaRecoverError",
          "type": "uint8"
        }
      ],
      "name": "InvalidSignatureError",
      "type": "error"
    },
    {
      "inputs": [
        {
          "internalType": "bytes32",
          "name": "messageId",
          "type": "bytes32"
        }
      ],
      "name": "NoSignaturesError",
      "type": "error"
    },
    {
      "inputs": [
        {
          "internalType": "address",
          "name": "owner",
          "type": "address"
        }
      ],
      "name": "OwnableInvalidOwner",
      "type": "error"
    },
    {
      "inputs": [
        {
          "internalType": "address",
          "name": "account",
          "type": "address"
        }
      ],
      "name": "OwnableUnauthorizedAccount",
      "type": "error"
    },
    {
      "inputs": [
        {
          "internalType": "bytes32",
          "name": "messageId",
          "type": "bytes32"
        },
        {
          "internalType": "address",
          "name": "signer",
          "type": "address"
        }
      ],
      "name": "SignerNotAllowedError",
      "type": "error"
    },
    {
      "inputs": [
        {
          "internalType": "bytes32",
          "name": "messageId",
          "type": "bytes32"
        },
        {
          "internalType": "uint256",
          "name": "count",
          "type": "uint256"
        },
        {
          "internalType": "uint256",
          "name": "threshold",
          "type": "uint256"
        }
      ],
      "name": "ThresholdNotMetError",
      "type": "error"
    },
    {
      "inputs": [
        {
          "internalType": "uint8",
          "name": "actual",
          "type": "uint8"
        },
        {
          "internalType": "uint8",
          "name": "expected",
          "type": "uint8"
        }
      ],
      "name": "UnexpectedVersionError",
      "type": "error"
    },
    {
      "anonymous": false,
      "inputs": [
        {
          "indexed": false,
          "internalType": "address",
          "name": "who",
          "type": "address"
        }
      ],
      "name": "OnValidatorAdded",
      "type": "event"
    },
    {
      "anonymous": false,
      "inputs": [
        {
          "indexed": false,
          "internalType": "address",
          "name": "who",
          "type": "address"
        }
      ],
      "name": "OnValidatorRemoved",
      "type": "event"
    },
    {
      "anonymous": false,
      "inputs": [
        {
          "indexed": true,
          "internalType": "address",
          "name": "previousOwner",
          "type": "address"
        },
        {
          "indexed": true,
          "internalType": "address",
          "name": "newOwner",
          "type": "address"
        }
      ],
      "name": "OwnershipTransferred",
      "type": "event"
    },
    {
      "inputs": [
        {
          "internalType": "address",
          "name": "value",
          "type": "address"
        }
      ],
      "name": "contains",
      "outputs": [
        {
          "internalType": "bool",
          "name": "",
          "type": "bool"
        }
      ],
      "stateMutability": "view",
      "type": "function"
    },
    {
      "inputs": [
        {
          "internalType": "address[]",
          "name": "addressList",
          "type": "address[]"
        }
      ],
      "name": "containsAll",
      "outputs": [
        {
          "internalType": "bool",
          "name": "",
          "type": "bool"
        }
      ],
      "stateMutability": "view",
      "type": "function"
    },
    {
      "inputs": [
        {
          "internalType": "bytes",
          "name": "data",
          "type": "bytes"
        }
      ],
      "name": "decode",
      "outputs": [
        {
          "internalType": "bytes32",
          "name": "messageId",
          "type": "bytes32"
        },
        {
          "components": [
            {
              "internalType": "address",
              "name": "emitterContract",
              "type": "address"
            },
            {
              "internalType": "uint8",
              "name": "validAfterNBlocks",
              "type": "uint8"
            },
            {
              "internalType": "uint16",
              "name": "validAfterNSeconds",
              "type": "uint16"
            },
            {
              "internalType": "uint32",
              "name": "blockHeight",
              "type": "uint32"
            },
            {
              "internalType": "uint32",
              "name": "a_reserved",
              "type": "uint32"
            },
            {
              "internalType": "uint8",
              "name": "messageVersion",
              "type": "uint8"
            },
            {
              "internalType": "uint32",
              "name": "sequence",
              "type": "uint32"
            },
            {
              "internalType": "uint32",
              "name": "srcChainId",
              "type": "uint32"
            },
            {
              "internalType": "uint32",
              "name": "timestamp",
              "type": "uint32"
            },
            {
              "internalType": "address",
              "name": "sender",
              "type": "address"
            }
          ],
          "internalType": "struct MessageOriginV1",
          "name": "origin",
          "type": "tuple"
        },
        {
          "internalType": "bytes",
          "name": "message",
          "type": "bytes"
        }
      ],
      "stateMutability": "view",
      "type": "function"
    },
    {
      "inputs": [],
      "name": "length",
      "outputs": [
        {
          "internalType": "uint256",
          "name": "",
          "type": "uint256"
        }
      ],
      "stateMutability": "view",
      "type": "function"
    },
    {
      "inputs": [
        {
          "internalType": "uint256",
          "name": "in_threshold",
          "type": "uint256"
        },
        {
          "internalType": "address[]",
          "name": "in_signers_delta",
          "type": "address[]"
        }
      ],
      "name": "onlyOwner_updateSettings",
      "outputs": [
        {
          "internalType": "uint256",
          "name": "added",
          "type": "uint256"
        },
        {
          "internalType": "uint256",
          "name": "removed",
          "type": "uint256"
        }
      ],
      "stateMutability": "nonpayable",
      "type": "function"
    },
    {
      "inputs": [],
      "name": "owner",
      "outputs": [
        {
          "internalType": "address",
          "name": "",
          "type": "address"
        }
      ],
      "stateMutability": "view",
      "type": "function"
    },
    {
      "inputs": [],
      "name": "renounceOwnership",
      "outputs": [],
      "stateMutability": "nonpayable",
      "type": "function"
    },
    {
      "inputs": [],
      "name": "threshold",
      "outputs": [
        {
          "internalType": "uint256",
          "name": "",
          "type": "uint256"
        }
      ],
      "stateMutability": "view",
      "type": "function"
    },
    {
      "inputs": [
        {
          "internalType": "address",
          "name": "newOwner",
          "type": "address"
        }
      ],
      "name": "transferOwnership",
      "outputs": [],
      "stateMutability": "nonpayable",
      "type": "function"
    },
    {
      "inputs": [],
      "name": "values",
      "outputs": [
        {
          "internalType": "address[]",
          "name": "",
          "type": "address[]"
        }
      ],
      "stateMutability": "view",
      "type": "function"
    }
  ],
  "bytecode": "0x6080604052346102165761127a803803806100198161025f565b9283398101906060818303126102165761003281610284565b60208201519091906001600160401b0381116102165781019280601f85011215610216578351936001600160401b03851161021b578460051b9060208061007a81850161025f565b80988152019282010192831161021657602001905b8282106102475750505060400151906001600160a01b0316801561023157600080546001600160a01b03198116831782556001600160a01b0316907f8be0079c531659141344cd1fd0a4f28419497f9722a3daafe3b4186f6b6457e09080a360408051908101906001600160401b0382118183101761021b57604091909152601d81527f4135355a454d5144424b5137495a454a5a514d424e3359364b35354e520000006020909101527f17e02284c7aaae85abae3e1a7da41417619544a4f0db5760fecb68b0874ecc7d60009081527f4fde99bf065cc239364b8347fb576a909e45a4a3ef158c38bf7eae4b0e41e100905b83518110156101ee576001906101ab6001600160a01b036101a38388610298565b5116846102c2565b507f83ab2521b0514c5ef1819524328f63d7ca42d22636e0c35ebb17de3a84fbbf356020838060a01b036101df8489610298565b5116604051908152a101610182565b50816002820155548015610216578111610216571561021657604051610f5390816103278239f35b600080fd5b634e487b7160e01b600052604160045260246000fd5b631e4fbdf760e01b600052600060045260246000fd5b6020809161025484610284565b81520191019061008f565b6040519190601f01601f191682016001600160401b0381118382101761021b57604052565b51906001600160a01b038216820361021657565b80518210156102ac5760209160051b010190565b634e487b7160e01b600052603260045260246000fd5b600181019082600052816020526040600020541560001461031e5780546801000000000000000081101561021b57600181018083558110156102ac57839082600052602060002001555491600052602052604060002055600190565b50505060009056fe6080604052600436101561001257600080fd5b60003560e01c80631f7b6d3214610b3f57806337b7c3521461095d57806342cde4e81461093357806358218d59146108d45780635dbe47e81461087f578063715018a6146108265780638da5cb5b146107fd578063971217b71461074d578063e5c5e9a3146101185763f2fde38b1461008a57600080fd5b34610113576020366003190112610113576100a3610bd5565b6100ab610d01565b6001600160a01b031680156100fd57600080546001600160a01b03198116831782556001600160a01b0316907f8be0079c531659141344cd1fd0a4f28419497f9722a3daafe3b4186f6b6457e09080a3005b631e4fbdf760e01b600052600060045260246000fd5b600080fd5b34610113576020366003190112610113576004356001600160401b03811161011357366023820112156101135780600401356001600160401b038111610113578101602481013681116101135761016d610c7b565b50610192610179610cc6565b80516020918201206000190160009081522060ff191690565b9261019b610c7b565b50602081840312610113576024810135906001600160401b038211610113570192838303608081126101135760405193606085018581106001600160401b038211176107035760405260248601356001600160401b0381116101135760249087010184601f820112156101135780359061021482610bbe565b926102226040519485610b9d565b82845260208085019360061b8301019187831161011357602001925b8284106107195750505050906040918552601f190112610113576040519361026585610b66565b60448101358552606481013560208601526020840194855260848101356001600160401b0381116101135760249101019382601f860112156101135784356001600160401b03811161070357604051956102c9601f8301601f191660200188610b9d565b818752602087019460208383010111610113578160009260208093018737870101528460408501528351519281519086519020602082519201519060405191602083019384526040830152606082015260608152610328608082610b9d565b5190209261033581610bbe565b946103436040519687610b9d565b818652601f1961035283610bbe565b013660208801378551156106ee5760005b82811061065857505060005b8181106105d15750505193610382610c7b565b50602085519501518560f81c9560405196879161039e83610b81565b60018060a01b0381168352602083019060ff8160a01c168252604084019061ffff8160a81c1682526060850163ffffffff8260b81c16815263ffffffff608087019260d81c16825260a086019285845260c087019463ffffffff8916865260e088019663ffffffff8a60201c1688526101206101008a019963ffffffff8c60401c168b52019960601c8a52600181036105b857508c519d60028c01549e8f811061059b575060009e508e8e5b5111156104c1578e8e6104936104848f6001600160a01b0361046c8686610beb565b51169060019160005201602052604060002054151590565b926001600160a01b0392610beb565b511690156104a9575060018e9f019e8f9061044a565b8d639fd2121760e01b60005260045260245260446000fd5b8c9b506040519b8c52600160a01b6001900390511660208c01525160ff1660408b01525161ffff1660608a01525163ffffffff1660808901525163ffffffff1660a08801525160ff1660c08701525163ffffffff1660e08601525163ffffffff166101008501525163ffffffff16610120840152600160a01b6001900390511661014083015261016082016101809052818151918261018083015260005b8381106105825750508160006101a0809484010152601f80199101168101030190f35b60208282018101516101a087840101528593500161055f565b8f908e630b0c025160e31b60005260045260245260445260646000fd5b6328cd474360e21b600052600452600160245260446000fd5b60005b8281106105e4575060010161036f565b808214610650576001600160a01b036105fd8389610beb565b51166001600160a01b03610611838a610beb565b5116146001600160a01b03610626848a610beb565b51169061063857506001905b016105d4565b86630e2c5ebf60e31b60005260045260245260446000fd5b600190610632565b61068a610666828451610beb565b5180516020909101516001600160ff1b038116919060ff90811c601b011689610e88565b5090610696838a610beb565b6001600160a01b03909116905260048110156106d857600090806106be575050600101610363565b6339580f4160e21b8252600488905260ff16602452604490fd5b634e487b7160e01b600052602160045260246000fd5b84639f32698560e01b60005260045260246000fd5b634e487b7160e01b600052604160045260246000fd5b604060248584030112610113576020604091825161073681610b66565b86358152828701358382015281520193019261023e565b3461011357600036600319011261011357610769610179610cc6565b6040518060208354918281520190819360005260206000209060005b8181106107e7575050508161079b910382610b9d565b6040519182916020830190602084525180915260408301919060005b8181106107c5575050500390f35b82516001600160a01b03168452859450602093840193909201916001016107b7565b8254845260209093019260019283019201610785565b34610113576000366003190112610113576000546040516001600160a01b039091168152602090f35b346101135760003660031901126101135761083f610d01565b600080546001600160a01b0319811682556001600160a01b03167f8be0079c531659141344cd1fd0a4f28419497f9722a3daafe3b4186f6b6457e08280a3005b346101135760203660031901126101135760206108ca61089d610bd5565b6108a8610179610cc6565b6001600160a01b03909116600090815260019091016020526040902054151590565b6040519015158152f35b34610113576020366003190112610113576004356001600160401b0381116101135736602382011215610113578060040135906001600160401b038211610113573660248360051b830101116101135760209160246108ca9201610c15565b346101135760003660031901126101135760206002610953610179610cc6565b0154604051908152f35b34610113576040366003190112610113576024356001600160401b038111610113573660238201121561011357806004013561099881610bbe565b916109a66040519384610b9d565b8183526024602084019260051b8201019036821161011357602401915b818310610b1f57600084816109d9610179610cc6565b9060028201926004358455815b8151811015610af7576001600160a01b03610a018284610beb565b511680610a8b576000818152600186016020526040902054610a29575b506001905b016109e6565b929060018201809211610a75577f952f6a80ee3f8f9091b41967b1d2ddc5201a688eabef6c5d6a38cf8ec146975b602060019395610a678189610db5565b50604051908152a190610a1e565b634e487b7160e01b600052601160045260246000fd5b600081815260018601602052604090205415610aab575b50600190610a23565b959060018201809211610a75577f83ab2521b0514c5ef1819524328f63d7ca42d22636e0c35ebb17de3a84fbbf35602060019398610ae98189610d42565b50604051908152a190610aa2565b8286868654908115610113575490811161011357156101135760409182519182526020820152f35b82356001600160a01b0381168103610113578152602092830192016109c3565b34610113576000366003190112610113576020610b5d610179610cc6565b54604051908152f35b604081019081106001600160401b0382111761070357604052565b61014081019081106001600160401b0382111761070357604052565b90601f801991011681019081106001600160401b0382111761070357604052565b6001600160401b0381116107035760051b60200190565b600435906001600160a01b038216820361011357565b8051821015610bff5760209160051b010190565b634e487b7160e01b600052603260045260246000fd5b610c20610179610cc6565b60005b83811015610c72576000600582901b8401356001600160a01b03811690819003610c6e57600090815260018401602052604090205415610c665750600101610c23565b935050505090565b5080fd5b50505050600190565b60405190610c8882610b81565b6000610120838281528260208201528260408201528260608201528260808201528260a08201528260c08201528260e0820152826101008201520152565b60405190610cd5604083610b9d565b601d82527f4135355a454d5144424b5137495a454a5a514d424e3359364b35354e520000006020830152565b6000546001600160a01b03163303610d1557565b63118cdaa760e01b6000523360045260246000fd5b8054821015610bff5760005260206000200190600090565b6000828152600182016020526040902054610dae57805490680100000000000000008210156107035782610d97610d80846001809601855584610d2a565b819391549060031b91821b91600019901b19161790565b905580549260005201602052604060002055600190565b5050600090565b9060018201918160005282602052604060002054801515600014610e7f576000198101818111610a75578254600019810191908211610a7557818103610e48575b50505080548015610e32576000190190610e108282610d2a565b8154906000199060031b1b191690555560005260205260006040812055600190565b634e487b7160e01b600052603160045260246000fd5b610e68610e58610d809386610d2a565b90549060031b1c92839286610d2a565b905560005283602052604060002055388080610df6565b50505050600090565b91907f7fffffffffffffffffffffffffffffff5d576e7357a4501ddfe92f46681b20a08411610f11579160209360809260ff60009560405194855216868401526040830152606082015282805260015afa15610f05576000516001600160a01b03811615610ef95790600090600090565b50600090600190600090565b6040513d6000823e3d90fd5b5050506000916003919056fea264697066735822122019eb922f2438b042ef5c9d86b640f44c95fe84b507a78c6c071e9d719411488464736f6c634300081c0033",
  "linkReferences": {},
  "deployedLinkReferences": {}
}